:10000000000002308A00152AFF00030E8301A100C0
:100010000A08A0008A010408A2007708A300780853
:10002000A4007908A5007A08A60003170D08031399
:10003000A70003170F080313A80003170C080313E6
:10004000A90003170E080313AA00831383128C3030
:100050008400001C2D280C184E2822088400230838
:10006000F7002408F8002508F9002608FA002708F8
:1000700003178D000313280803178F0003132908A3
:1000800003178C0003132A0803178E00031320089C
:100090008A00210E8300FF0E7F0E09008A110A12CA
:1000A0005128B10A0C108A110A122D28D232F33AC3
:1000B0006C3A613A201DA0126410090037308400A8
:1000C00083130008031971280630F800F701F70BB5
:1000D0006728F80B66287B30F700F70B6D28800B3C
:1000E0006428080083160512091505308312900054
:1000F0008E01EC308F0077308E00C0308B04831679
:100100000C148312B1010830B600FA30B7005E203B
:10011000B60B8528051683160512C8308312B70062
:100120005E20051283160512C8308312B7005E20C8
:10013000051683160512C8308312B7005E2005121B
:1001400083160512C8308312B7005E200516831689
:100150000512C8308312B7005E20051283160512FF
:1001600004308312B600FA30B7005E20B60BB32815
:100170008A110A12392AF801F901F701FA013C083B
:10018000031DC5283B080319DF281030BD000310EC
:10019000B90DBA0DF70DFA0D3C087A02031DD228ED
:1001A0003B087702031CDB283B08F702031CFA0319
:1001B0003C08FA020314F80DF90DBD0BC72808001E
:1001C0003008B9002F08B8002E08B7002D08B60077
:1001D0004130BD00C630BC004E30BB006D30BA00AF
:1001E0002030C200BE01BF01C001C1013908FA00C0
:1001F0003808F9003708F8003608F7000310771CB4
:100200000F293A08BE073B0803183B0FBF073C08FD
:1002100003183C0FC0073D0803183D0FC107C10C70
:10022000C00CBF0CBE0CFA0CF90CF80CF70CC20B8E
:10023000FE2839307707AD007808AE00303003185B
:100240003130AE077908AF00003003180130AF0736
:100250007A08B000003003180130B0072F08F7000B
:100260003008F800F901FA013008B8002F08B7008B
:100270003008BA002F08B9007F30BC00FF30BB0047
:10028000BB207708F8007A08F9008A110A12522A6E
:100290000B08B7008B13831603178C170C14000080
:1002A000000083120313B71B8B1703188029031751
:1002B0000C087F390313B70003170D080313B800A8
:1002C00003170F080313B90037080C1E652999009E
:1002D000380803178D000313390803178F00031321
:1002E0000B08BA008B13831603178C170C1400002D
:1002F000000083120313BA1B8B17B60B8029A029A9
:1003000003170C0D0E0D7F390313B70003170D08EB
:100310000313B80003170F080313B90037080C1EA6
:100320008F299900380803178D0003133908031724
:100330008F008D0A03198F0A03100313B60B482987
:100340008A110A127D2A3D08F8013C020318AB29E4
:100350003C08F700B729F7010830BE00BC0DF70DC7
:100360003D0877020318F700F80DBE0BAE29080010
:100370002030371E3030B8003608F700B61FC829C5
:10038000F709F70A7708B6002D30B800B717371409
:100390003608BC006430BD00A3217708B6003030B9
:1003A0007807B9003608BC000A30BD00A321303000
:1003B0007707BB0030307807BA003808F7003030D4
:1003C00039020319E729B714B71B3715FB29380879
:1003D000B9002030B80030303A020319F32937143D
:1003E000B71BB714FB29031D3714031DFB2939085C
:1003F000BA002030B9003719022AB718062A371870
:100400000A2A0E2A38080C1E032A990039080C1EE5
:10041000072A99003A080C1E0B2A99003B080C1E6B
:100420000F2A99008A110A12822A03081F398300B1
:100430008316031787152A300313990000309A009A
:10044000A63098009030831298008316031709088D
:10045000C039890003131F129F1200300317880050
:10046000831287018801890183130313AB01AC0157
:100470007228B1013214321C452A32100919321483
:1004800005128316051283123B2A32140C30B60073
:10049000FA30B7005E20B60B482A73300C1E4E2A85
:1004A0009900E0287908B7007808B6007908BA0002
:1004B0007808B9000B30BC00B830BB00BB2077080F
:1004C000B5003508B7005E200516831605128312A5
:1004D0003108B300321C702A3210091932146A2A0A
:1004E00033083102B300563003178D0000308F00FF
:1004F00003100B300313B60048293308B600183038
:10050000B700B82920300C1E832A990009300C1E30
:10051000872A99000430B600FA30B7005E20B60B87
:060520008C2A392A922A00
:04400E00F20CFF3F72
:00000001FF
;PIC16F887
;CRC=6670  CREATED="18-mars-21 15:47"
